:020000040800F2
:10000000FF4F0020954B0008DD4B0008DD4B00083A
:10001000DD4B0008DD4B0008DD4B00080000000050
:10002000000000000000000000000000C174000893
:10003000DD4B000800000000D175000819760008AB
:10004000DD4B0008DD4B0008DD4B0008DD4B0008F0
:10005000DD4B0008DD4B0008DD4B0008DD4B0008E0
:10006000DD4B0008DD4B0008DD4B0008DD4B0008D0
:10007000DD4B0008DD4B0008DD4B0008DD4B0008C0
:10008000DD4B0008DD4B0008DD4B0008DD4B0008B0
:10009000DD4B0008DD4B0008DD4B0008DD4B0008A0
:1000A000DD4B0008DD4B0008DD4B0008DD4B000890
:1000B000DD4B0008DD4B0008DD4B0008DD4B000880
:1000C000DD4B0008DD4B0008DD4B0008DD4B000870
:1000D000DD4B000819540008DD4B0008DD4B00081B
:1000E000DD4B0008DD4B0008DD4B00080000000080
:1000F0000000000000000000000000000000000000
:0C01000000000000000000005FF808F1A3
:100110004FF0FF0C1CEAD0521EBF1CEAD15392EAEA
:100120000C0F93EA0C0F6FD01A4480EA010C4002C6
:1001300018BF5FEA41211ED04FF0006343EA501020
:1001400043EA5111A0FB01310CF00040B1F5000F62
:100150003EBF490041EAD3715B0040EA010062F111
:100160007F02FD2A1DD8B3F1004F40EBC25008BFFB
:1001700020F00100704790F0000F0CF0004C08BF19
:1001800049024CEA502040EA51207F3AC2BFD2F1E6
:10019000FF0340EAC250704740F400004FF00003F4
:1001A000013A5DDC12F1190FDCBF00F0004070472E
:1001B000C2F10002410021FA02F1C2F1200200FA6C
:1001C00002FC5FEA310040F1000053EA4C0308BF33
:1001D00020EADC70704792F0000F00F0004C02BF84
:1001E000400010F4000F013AF9D040EA0C0093F0FF
:1001F000000F01F0004C02BF490011F4000F013B59
:10020000F9D041EA0C018FE70CEAD15392EA0C0FC6
:1002100018BF93EA0C0F0AD030F0004C18BF31F031
:10022000004CD8D180EA010000F00040704790F007
:10023000000F17BF90F0004F084691F0000F91F0AB
:10024000004F14D092EA0C0F01D142020FD193EA71
:100250000C0F03D14B0218BF084608D180EA0100F9
:1002600000F0004040F0FE4040F40000704740F0D5
:10027000FE4040F44000704780F0004002E000BFC4
:1002800081F0004142001FBF5FEA410392EA030F81
:100290007FEA226C7FEA236C6AD04FEA1262D2EBCB
:1002A0001363C1BFD218414048404140B8BF5B42D0
:1002B000192B88BF704710F0004F40F4000020F069
:1002C0007F4018BF404211F0004F41F4000121F07F
:1002D0007F4118BF494292EA030F3FD0A2F10102C9
:1002E00041FA03FC10EB0C00C3F1200301FA03F107
:1002F00000F0004302D5494260EB4000B0F5000F2A
:1003000013D3B0F1807F06D340084FEA310102F1E8
:100310000102FE2A51D2B1F1004F40EBC25008BF9A
:1003200020F0010040EA03007047490040EB000064
:10033000013A28BFB0F5000FEDD2B0FA80FCACF165
:10034000080CB2EB0C0200FA0CF0AABF00EBC25092
:1003500052421843BCBFD0401843704792F0000F80
:1003600081F4000106BF80F400000132013BB5E7D3
:100370004FEA41037FEA226C18BF7FEA236C21D049
:1003800092EA030F04D092F0000F08BF08467047AE
:1003900090EA010F1CBF0020704712F07F4F04D17C
:1003A000400028BF40F00040704712F100723CBF8F
:1003B00000F50000704700F0004343F0FE4040F4B9
:1003C000000070477FEA226216BF08467FEA236377
:1003D0000146420206BF5FEA412390EA010F40F462
:1003E000800070474FF0000304E000BF10F00043AE
:1003F00048BF40425FEA000C08BF704743F0964395
:1004000001464FF000001CE050EA010208BF7047AF
:100410004FF000030AE000BF50EA010208BF704736
:1004200011F0004302D5404261EB41015FEA010C4B
:1004300002BF84460146002043F0B64308BFA3F143
:100440008053A3F50003BCFA8CF2083AA3EBC25325
:1004500010DB01FA02FC634400FA02FCC2F1200244
:10046000BCF1004F20FA02F243EB020008BF20F07B
:100470000100704702F1200201FA02FCC2F12002E1
:1004800050EA4C0021FA02F243EB020008BF20EAD6
:10049000DC70704770B50F4B0F4DAB42A3EB0506F8
:1004A00007D00024B61055F8043B01349847A64203
:1004B000F9D804F04DFC094D094B5E1BAB424FEAE5
:1004C000A60606D0002455F8043B01349847A642FE
:1004D000F9D870BDC07A0008C07A0008C07A000858
:1004E000C07A000870B5860747D0541E002A3ED057
:1004F0000346CAB201E0013C39D303F8012B9D0742
:10050000F9D1032C2CD9CDB205EB05250F2C1A46B9
:1005100005EB054534D9A4F1100C2CF00F0603F1BE
:10052000100EB6444FEA1C1CC2E90055C2E9025540
:1005300010327245F8D10CF1010214F00C0F03EBEC
:10054000021204F00F0C13D0ACF1040323F00303E8
:100550000433134442F8045B9342FBD10CF00304D0
:100560002CB1C9B21C4403F8011BA342FBD170BDDE
:1005700064461346002CF4D1F9E703461446C0E75D
:10058000A446E1E72DE9F04D002B88B014461D4646
:10059000109E1299DDF8508041DB0022B8F1650F02
:1005A0000A7039D040DCB8F1450F35D0B8F1460FAC
:1005B0005FD103230093139B2246CDE9016307AB70
:1005C000049306AB03932B4600F0F4FB074628F098
:1005D0002003462B07EB060805D13B78302B3CD097
:1005E000139B1E68B044204629460022002304F0D5
:1005F00043FA00283BD1079B984506D930215A1C65
:1006000007921970079B4345F9D33846159ADB1BAF
:10061000136008B0BDE8F08D02230136CAE703F18C
:10062000004B2D225D46B9E7B8F1660FC1D0139B90
:100630002246CDE901630223009307AB049306AB86
:1006400003932B4600F0B6FBB8F1670F0746BED107
:10065000119BDB0721D4079BD7E70022002320460C
:10066000294604F009FAD8B1139B1B689844434605
:10067000CBE7139B2246CDE901630223009307AB2E
:10068000049306AB03932B4600F094FBB8F1470F9D
:1006900007469CD1119BDB07DDD507EB0608A2E7D7
:1006A000139BC6F101061E609CE700BF0029B4BF82
:1006B0002D232B2330B5B8BF4942092983B00270DE
:1006C00043702CDD0DF107042346194D8C461A4664
:1006D000A5FB01E3DB0803EB830EA1EB4E0101F167
:1006E000300EBCF1630F194602F801EC02F1FF3342
:1006F000ECDC303103F8011C931EA34200F102052B
:100700000AD2411C13F801CBA34201F801CFF9D161
:100710000DF109039B1A1D44281A03B030BD302384
:10072000051D1944C1708370281A03B030BD00BF85
:10073000CDCCCCCC2DE9F04F91B00C46DDF86880E3
:1007400016461F46054602F0F3FA036818460A9358
:1007500002F0BEFA00230E93D8F800300B90073356
:1007600023F0070303F10802D4F800A094F818B0AE
:10077000C8F80020D3E9008929F000430993CDF897
:1007800020804FF0FF32DDE90801C4E91289A04B57
:1007900004F0A4F940B9DDE908014FF0FF329C4BA9
:1007A00004F07EF9002877D042464B464046494641
:1007B00004F094F9002840F03B8263684AF48061B9
:1007C0005A1C0BF0DF0A35D0BAF1470F00F0288130
:1007D000009321600191002106910EA905910DA9B8
:1007E00003910DF1330142464B462846CDF810B037
:1007F0000291FFF7C7FE8046BBF1650F0D993AD90C
:10080000BBF1660F00F02E810E9B8B4240F33581C9
:100810000029CCBF0122C1F10202134423614FF031
:10082000000AA1659DF83330002B4DD02D2384F8AC
:10083000433049E0216001910021062006910EA974
:10084000CDF810B0606005910DA903910DF1330151
:10085000424600904B4628460291FFF793FEBAF1BC
:10086000470F8046C8D10D99C81C80F2F480ABF1C7
:10087000020B5FFA8BFB5A46013904F150000D91CF
:10088000FFF714FF0E9A82461318012A236140F3E2
:10089000428101332361C5E74046494600220023D7
:1008A00004F0F4F810B12D2384F843302AF0040347
:1008B00023600323574A2361574B4FF0000ABBF1D3
:1008C000470F8CBF904698463346214628460097EE
:1008D0000FAA01F04FFA013023D0236858052BD41A
:1008E0004246314628462369B847013019D022686C
:1008F0009207E0680F9B19D5984217DD4FF000086A
:1009000004F1190904E0E0680F9BC21A42450DDDAD
:1009100001234A4631462846B847013008F101080C
:10092000F1D14FF0FF3011B0BDE8F08F9842B8BF61
:10093000184611B0BDE8F08FBBF1650F33D9D4E98B
:1009400012010022002304F097F8002800F09D8097
:10095000012331462846314AB8470130E1D0DDE96C
:100960000D3A534502DB2268D107C1D5DDE90A23E0
:1009700031462846B8470130D3D0BAF1010FB6DD71
:100980004FF000080AF1FF3A04F11A0901E0D045DE
:10099000ADD001234A4631462846B847013008F118
:1009A0000108F4D1BDE7DDF83890B9F1010F40F34B
:1009B0009D800123424631462846B8470130B0D0D9
:1009C000DDE90A2331462846B8470130A9D0D4E9E9
:1009D00012010022002309F1FF3B04F04DF800282A
:1009E00000F09E80B9F1010F40F38B804FF00008BA
:1009F00004F11A0902E0D84500F0838001234A4639
:100A000031462846B847013008F10108F3D188E79C
:100A1000FFFFEF7F84790008807900089079000853
:100A20000BB90123636000932160019100210691BD
:100A30000EA905910DA903910DF1330142460291D2
:100A40004B462846CDF810B0FFF79CFD0D99804627
:100A5000C81CFFF60CAF636899423FF708AF4FF030
:100A6000670BD1E6002963685EDD2161002B00F091
:100A70008D8001330B442361D1E623682161DB07BC
:100A80007FF5CDAE4B1C2361C9E60D9B002B52DDDB
:100A90000E9BD4F858B099465B45A8BFD946B9F12A
:100AA000000F089309DD4B46424631462846B847B9
:100AB00001303FF436AFD4F858B029EAE9729345D3
:100AC00071DD4FF0000A934604F11A0904E0A36DAA
:100AD000A3EB0B02524565DD01234A463146284609
:100AE000B84701300AF1010AF1D11AE7D9073FF5F9
:100AF00060AF4246012331462846B84701303FF4F3
:100B000010AF53463146284604F15002B847013031
:100B10007FF4EDAE05E72268D2077FF583AEB8E635
:100B20005B4608F10102E6E7002B34D12268D207C8
:100B300031D4012372E60123314628464B4AB84797
:100B400001303FF4EEAEDDE90D3A5AEA030324D05A
:100B5000DDE90A2331462846B84701303FF4E1AECB
:100B60000D9B002B79DA4FF0000B04F11A0903E01A
:100B70000D9B5B425B4570DD01234A4631462846AA
:100B8000B84701300BF1010BF2D1CAE62268D00759
:100B90007FF545AE6DE7023340E62268D3077FF567
:100BA000A7AED5E79B460D9B089A9A4202DC2268C5
:100BB000D00708D5DDE90A2331462846B847013079
:100BC0003FF4AFAE0D9B089AA2EB0B0AD31A9A45DD
:100BD000A8BF9A46BAF1000F91460BDD5346314645
:100BE000284608EB0B02B84701303FF49AAE4A465C
:100BF0000D9BD31A2AEAEA7A53457FF778AE4FF075
:100C00000008DDF820B004F11A0907E00D9BABEBFA
:100C10000303A3EB0A0343457FF769AE01234A466A
:100C200031462846B847013008F10108EED178E690
:100C30004B46002BBCBF2D2384F843302AF004031D
:100C4000236003230A4A23610A4B4FF0000ABBF1D9
:100C5000470F8CBF9046984636E65346424631468B
:100C60002846B84701307FF442AE5AE69079000832
:100C70008C790008887900082DE9F04F03690C6928
:100C800085B0A342C0F291808146013C01F1140578
:100C900009F1140855F8243058F824C001339C4554
:100CA000BCFBF3F64FEA840005EB840708EB8402F3
:100CB00043D34FF0000CAA46CDE90105C646634672
:100CC00065469346CDF80C805AF8040BDEF80020F8
:100CD0001FFA80FC06FB0C554FEA10484FEA154CF2
:100CE00006FB08CCADB290B2401B18441FFA8CF33F
:100CF000C3EB204303EB124380B240EA0340574565
:100D00004EF8040B4FEA1C454FEA2343DCD2DDE9E1
:100D10000105DDF80C8058F8003073B9ABF104021E
:100D2000904504D307E0904504F1FF3403D252F814
:100D30000439002BF7D0C9F81040484601F066FD91
:100D400000282EDB4146002255F8040BD1F800C0E4
:100D50001FFA80FE1FFA8CF3A3EB0E031344020C60
:100D6000C2EB234202EB1C429BB243EA0243AF4276
:100D700041F8043B4FEA2242E6D258F8242008EB1F
:100D800084036AB9043B434504D807E0984504F15D
:100D9000FF3403D253F80429002AF7D0C9F81040D1
:100DA0000136304605B0BDE8F08F002005B0BDE843
:100DB000F08F00BF2DE9F04F16461F46C5699DB064
:100DC000CDE90667299C0390002D00F0B2832968C5
:100DD00051B101236A6893404A608B6001F050FA78
:100DE0000022039BDB691A60B7F10009B4BF01233D
:100DF00000232360784BBCBF29F00049CDF81C903C
:100E000033EA090300F0AE80DDE9063418462146D6
:100E100000220023CDE9040103F02EFE804668B1D4
:100E20000123289A13602A9B13B16C4B2A9A1360F2
:100E30006B4B089308981DB0BDE8F08F1AAB019377
:100E40001BAB00930398DDE9042301F03DFE5FEA4C
:100E50001955824640F09C80DDE91A85454405F22B
:100E60003243202B40F39983C3F1400309FA03F97D
:100E700005F2124326FA03F349EA030003F01AFBD2
:100E80000123013D1193A1F1F8710022554B03F0AC
:100E9000D3F94BA3D3E9002303F086FB4AA3D3E99C
:100EA000002303F0CBF9064628460F4603F012FB59
:100EB00047A3D3E9002303F077FB02460B463046F5
:100EC000394603F0BBF906460F4603F01DFE00222B
:100ED0000446099000233046394603F0D7FD002828
:100EE00040F03483099CA8EB0508162C08F1FF3B61
:100EF00000F21383DDE904013B4B03EBC403D3E9A8
:100F0000002303F0C3FD002874D0631E099300235F
:100F1000BBF1000F1093C0F2068300230B93099BD3
:100F2000002B6DDA099B0B9A0E93D21A5B420F933A
:100F300000230993269B0B92092B69D8052BC4BF6C
:100F4000043B2693269BC8BF0025A3F10203D8BF0C
:100F50000125032B00F24C86DFE813F07A047704B6
:100F60006E04500442F20F73289AC9F3130959EA28
:100F7000060913601CD12A9B002B00F02F861B4B07
:100F8000089308332A9A089813601DB0BDE8F08FC3
:100F9000DDE90412C2F31303084643F07F51CDF894
:100FA0004480A5F2FF35DDF8688041F440116CE71C
:100FB0002A9B002B40F0FE830D4B08933AE700BFBD
:100FC00061436F63A787D23FB3C8608B288AC63F4F
:100FD000FB799F501344D33F0000F07F91790008C4
:100FE000907900080000F83F107700089479000815
:100FF000A0790008B8F1000F40F3AF8410900B9077
:10100000099B9B440E9300230F93269B092B95D994
:10101000002326934FF0FF3301250A9300230C95FC
:1010200027930021039BDB6959600A9B189303985F
:1010300001F0E6F80890002800F0E385039B089A89
:10104000DB691A600A9B0E2B00F20D81002D00F067
:101050000A810E99002940F34E84AE4B01F00F0235
:1010600003EBC2030A46D3E90067D2054FEA211514
:1010700040F11084DDE90401A74B4FF00309D3E9E7
:10108000082303F0BBFBCDE9120105F00F058DB17C
:10109000DFF88482EB0709D5D8E9002330463946CA
:1010A00003F082FA06460F4609F101096D1008F1B6
:1010B0000808EFD1DDE912013B46324603F09EFB02
:1010C00007468846109B43B1002238464146934B61
:1010D00003F0DCFC002840F01285484603F0FAF9E2
:1010E0003A46434603F060FA8D4B002203F0A6F81F
:1010F0000A9B0446A1F15075002B00F09D800E9BC9
:1011000019930A9B12934146384603F0FDFC12994D
:10111000804BCDE9144503EBC10353E90234054686
:10112000CDE9163403F0D6F90B460246414638465F
:1011300003F082F8089F0C9B30357E1CECB2804691
:1011400089463546002B00F06B84DDE9162300202C
:10115000744903F053FBDDE9142303F06DF83C7090
:1011600042464B4604460D4603F0AEFC002840F0D4
:10117000B984CDF858B0CDF850A0AB460027A246B0
:10118000129D2AE00137AF4280F201855046594650
:101190000022654B03F008FA0022634B82468B461F
:1011A0004046494603F000FA8946804603F0ACFC0D
:1011B000044603F08FF902460B464046494603F0C9
:1011C0003BF8303452465B4606F8014B8046894670
:1011D00003F05CFC002840F0D78442464B460020D8
:1011E0004E4903F029F852465B4603F04FFC0028B5
:1011F000C8D0199B3746DDF850A0089A03F10108C2
:1012000002E0974200F0A1843E4617F8013D392BD9
:10121000F7D00133DBB245463B706DE1484603F041
:1012200059F93A46434603F0BFF900223C4B03F01C
:1012300005F80446A1F15075384600223B4B414663
:1012400002F0FAFF22462B4606460F4603F03CFC0E
:10125000002840F0898430463946224605F1004393
:1012600003F014FC28BB1B9B002BC0F291800E9A4C
:101270000E2A00F38D80274B0E9A03EBC203D3E9AD
:101280000034CDE90634279B002B19DA0A9B002B8A
:1012900016DC0ED1DDE906010022244B03F084F9AF
:1012A00002460B46DDE9040103F0FAFB002800F0DA
:1012B0005B8400231F46089E0493279BDD4340E286
:1012C000089B5D1CDDE90678DDE904013A464346EA
:1012D00003F094FA03F018FC064603F0FBF83A46D4
:1012E000434603F061F902460B46DDE9040102F0D2
:1012F000A3FF089A06F1300313700A9B2F46012BB7
:1013000000F036830125CDF810A0A846DDE906AB34
:1013100099462BE010770008007800080000F03FA5
:1013200000001C400000E03F00002440000014408A
:1013300052465B462046294603F060FA03F0E4FB80
:10134000064603F0C7F852465B4603F02DF908F154
:1013500001080B4602462946204602F06DFF06F1C1
:101360003003C84507F8013B00F0008300228D4B95
:1013700003F01AF90022002304460D4603F07CFB1B
:101380000028D5D00E9D3E46DDF810A00135B3E013
:101390000C9A002A40F0EE8000231F460F9E0B9D02
:1013A0000C9365B1BBF1000F09DD5D452B46A8BF6D
:1013B0005B460B9AED1AD21A0B92ABEB030B0F9B09
:1013C00053B10C9B13B1002E40F00B8351460F9A82
:1013D000039801F037F982460121039801F06AF879
:1013E000099B0490002B40F0D081269B012B40F3F9
:1013F000E6810120584410F01F0000F0B480C0F1D5
:101400002003042B40F3F5810B9BC0F11C00034427
:101410000B93054483440B9B002B05DD51461A4674
:10142000039801F07FF98246BBF1000F05DDDDE98D
:1014300003015A4601F076F90490109B002B40F00E
:1014400089810A9B002B40F361810C9B002B40F0AB
:10145000B8800E9D01350126DDF82080049CDDF862
:1014600028B0DDF80C9007E0514600230A224846D8
:1014700000F02AFF8246013621465046FFF7FCFB6A
:10148000B34500F1300008F8010BEDDC0A9B814602
:10149000002BCCBF1E4601260024089B03EB060B45
:1014A00051460122039801F03DF90499824601F06A
:1014B000ADF9002840F30282089A02E0934500F05B
:1014C00015821BF8013C5E46392B0BF1FF3BF5D032
:1014D00001338BF80030DDE90381404600F0D0FE97
:1014E00057B12CB1BC4203D02146404600F0C8FEA3
:1014F0003946039800F0C4FE5146039800F0C0FE40
:1015000000233370289B1D602A9B002B3FF492AC74
:1015100008981E601DB0BDE8F08F0123BBF1000FDD
:101520001093BFF6FAACC8F101034FF0000B0B9318
:10153000F5E4102000F00EFC039BD861002800F0B9
:101540005183C0E90055C0E902554DE4204602F040
:10155000C1FF32463B4603F08FFA00287FF4C2AC4D
:10156000631E0993BEE41C230B9A1D441A440B927C
:101570009B4450E7269A012A40F3AB810A9A0F9BBD
:10158000561EB342C0F26781002AA3EB060680F222
:10159000EF82DDE90A239D1A6AE1C3F1200306FA0E
:1015A00003F06BE400002440394600230A2203982C
:1015B00000F08AFE189B0746002B40F302830E962C
:1015C0000A93002D05DD39462A46039801F0AAF852
:1015D0000746099B002B40F0E881B846089B0A9C0F
:1015E0001E46013B1C44069B03F00103CDE90A4360
:1015F000039C04995046FFF73FFB3946834650460B
:1016000001F004F9049905464246204601F01EF90E
:10161000C36801460BF13009ABBB0990504601F09D
:10162000F5F809990990204600F02AFE099A002A47
:1016300054D1269B1BB90B9B002B00F0AE82002DD2
:101640003FDBB3460A9B0BF8019BB34200F0C48119
:10165000514600230A22204600F036FE47458246C6
:1016600039464FF000034FF00A02204630D000F018
:101670002BFE414600230A220746204600F024FEA6
:101680005E468046B5E7039800F0FAFD002D06DBC4
:10169000069B03F00102269B1D432A4329D1514694
:1016A0000122039801F03EF80499824601F0AEF859
:1016B000002840F3F780B9F1390F00F04B820BF1AD
:1016C00031090E9D3C460135474606F8019B02E76D
:1016D00000F0FAFD5E46074680468AE7002DC0F21C
:1016E000A282269B1D430B9B1D4300F09C82002A77
:1016F000A7DDB9F1390F00F02D820E9D09F101032C
:101700003C460135474606F8013BE4E6269B022BA2
:101710007FF79BAE0A9B002B40F02681052204999F
:10172000039800F0D1FD01460490504601F06EF898
:10173000002840F3198131230E9D089E013506F8DB
:10174000013BDDE9030100F09BFD0135002F7FF433
:10175000CFAED1E65046049901F058F80028BFF604
:1017600070AE514600230A2203980E9C00F0ACFD97
:101770000C9B8246661E002B7FF416AF189B002B35
:1017800040F312820E9D0A9365E601461A460398BD
:1017900000F058FF269B0490012B6FDD0023099376
:1017A000049A136902EB8303186900F033FEC0F159
:1017B00020001FE6964B08930333FFF7E3BB069B1D
:1017C000002B7FF416AEDDE90612C2F31303002BE3
:1017D0007FF40FAE8F4B13402BB10B9B0BF1010B22
:1017E00001330B930123099A0993002A3FF401AEB8
:1017F000D6E73FF410AEC0F13C03B5E601230C93ED
:10180000279B0E9A134418930133012B1F46B8BF30
:1018100001270A93039B172FDE6940F20082012201
:1018200004235B0003F11400B842114602F10102E7
:10183000F7D97160FFF7FBBB01230C93279B002BAB
:1018400037DD1F4618930A93E4E700230C93D7E78C
:1018500000230C93F2E70F9B0F96F31A0026099AC8
:101860001A4409920B9B0A9A1D46134493440B9306
:101870000121039800F01EFE074692E5069B002B0F
:101880008CD1DDE90601C1F313030A46002BA1D078
:10189000099085E7DDE904344FF00209CDE91234FF
:1018A000FFF7F5BB7FF40DAF19F0010F7FF403AF25
:1018B00007E7012327930A93FFF7B3BB03D119F07E
:1018C000010F7FF4F9AD5E461BF8013D302BFAD0D5
:1018D00001E6119A002A00F0088103F233430B9AC3
:1018E0000F9E15461A449B440B92C1E73123089A78
:1018F00001351370EFE500F0FC80DDE904010E9A7C
:10190000454B554205F00F0203EBC203D3E9002318
:1019100002F04AFE2D11CDE9120100F05981002399
:101920004FF00209074688463C4EEC070AD5D6E937
:1019300000233846414602F037FE01230746884619
:1019400009F101096D1006F10806EED1002B7FF4B4
:10195000B9ABDDE91278FFF7B5BBC8F101038346E7
:101960000B931090FFF74CBB089EA6E4DDF810A087
:1019700002460B4602F062FC02460B460E9DCDE984
:101980000423DDE906230135A84603F09DF840B99C
:10199000DDE90623DDE9040103F06EF818B1F00774
:1019A00001D5089A30E43E46A6E50398796800F030
:1019B00027FC0546002800F02B813B6907F10C014C
:1019C00002339A000C3000F04FF9012229460398A7
:1019D00000F0A8FE804601E60E9D3C4601354746D4
:1019E0005EE5039C39463246204600F02BFE074652
:1019F00052463946204600F073FD51468246204645
:101A000000F03EFC0F9B9B1B0F933FF4E5ACDDE425
:101A1000A07900080000F07F107700080078000827
:101A2000DDE91623DDE9140102F0BEFD089BCDE9D6
:101A30000C011C70129B012B00F0C180129F089BAF
:101A400011961F440022804B4046494602F0ACFDEF
:101A50000D46044603F058F8814602F03BFD02466D
:101A60000B462046294602F0E7FB09F1300906F84B
:101A7000019BB74280468946E4D1119D0022DDE9F1
:101A80000C01724B02F0DAFB02460B464046494617
:101A900003F01AF8002871D1DDE90C2300206B490E
:101AA00002F0CAFB02460B464046494602F0EEFFF2
:101AB00088B91B9B002BFFF66FAC0E9B0E2B3FF7DC
:101AC0006BAC634B0E9A03EBC203D3E90034CDE950
:101AD0000634FFF7F7BB17F8013C3E46302B07F101
:101AE000FF37F8D0199D013506E51A9BC3F136037F
:101AF000F5E64FF00209DDE90478FFF7E3BA0A9B47
:101B0000002B3FF48BAB189C002C7FF7ACAB0E9BEB
:101B10003846013B4146002219934B4B02F044FDED
:101B200002468846174609F1010002F0D3FC3A4606
:101B3000434602F039FD0022464B02F07FFB12942F
:101B4000A1F150750446FFF7DEBA312308F1010810
:101B5000FFF761BBB34639230E9D3C46089A4746C2
:101B600001350BF8013BACE400231F460493E2E58A
:101B70000B9B93441D4613440B9379E6199B089ADB
:101B800003F10108FFF740BBDDF850A0AAE7DDF83C
:101B900058B0DDF850A0FFF766BBB9F1390FD9D0C6
:101BA000002D3FF78CAD8CE5269B022B03DC189BA8
:101BB0000E9D0A934FE4189B0E960A93AAE53746AA
:101BC0005CE7269B022BF6DC189B0E960A93F8E442
:101BD0004FF00209DDE91278FFF774BA1E4B089343
:101BE000FFF728B90246EF211C4B1D4800F0E2FA2E
:101BF000002503982946C3695D6000F001FB089049
:101C0000A8B9002240F2AF11164B154800F0D2FAE5
:101C1000024640F2EF21134B114800F0CBFA0021AD
:101C20007160FFF704BA002A3FF739AD49E5039B1D
:101C30000899DB694FF0FF3219600123279518924C
:101C40000C930A92FFF70FBB000024400000E03F16
:101C50001077000800001C4094790008A47900085F
:101C6000BC790008E8790008844641EA000313F0D3
:101C7000030349D1403A23D30B6803604B684360A8
:101C80008B688360CB68C3600B6903614B694361F8
:101C90008B698361CB69C3610B6A03624B6A4362E0
:101CA0008B6A8362CB6AC3620B6B03634B6B4363C8
:101CB0008B6B8363CB6BC36340304031403ADBD2E4
:101CC00030320BD30B6803604B6843608B688360D2
:101CD000CB68C36010301031103AF3D20C3205D308
:101CE00051F8043B40F8043B043AF9D2043208D0DE
:101CF000D2071CBF11F8013B00F8013B01D30B8850
:101D000003806046704700BF082A13D38B07B1D009
:101D100010F00303AED0C3F10403D21ADB071CBFDB
:101D200011F8013B00F8013BA4D331F8023B20F845
:101D3000023B9FE7043AD9D3013A11F8013B00F87E
:101D4000013BF9D20B7803704B7843708B7883702A
:101D500060467047024B0146186801F033B800BF77
:101D600000000020024B0146186801F0ABB800BF2C
:101D7000000000202DE9F84F92461F460A698B6843
:101D80000C469A42B8BF1A46CAF8002091F8433070
:101D90000646DDF8289013B10132CAF80020226807
:101DA00091065FD5DAF800300233CAF800302268B5
:101DB00012F0060F11461DD1E1689942D8BF1146B5
:101DC00018DD4FF0000804F1190B05E0E568DAF8BA
:101DD0000030ED1A45450CDD01235A4639463046A0
:101DE000C847013008F10108F0D14FF0FF30BDE8DD
:101DF000F88F216894F84330003B18BF01238A060E
:101E00000AD53021E21882F8431094F845105A1C84
:101E10002244023382F843103946304604F143022B
:101E2000C8470130E1D0D4E902202368DAF8005035
:101E300003F00603042B21691BD08A4220DD4FF0FA
:101E40000008521A904400251A3401E0454517DA7B
:101E50000123224639463046C847013005F10105C5
:101E6000F4D1C2E712F0060F0DD0003B18BF0123DA
:101E7000D2E7401B8A4220EAE078E2DC0028E2DC7C
:101E80000020BDE8F88FE168DAF800309942D8BF49
:101E9000114696DCAEE700BF2DE9F04717460A7EF3
:101EA00084B00C46064698460C9D01F1430C002A6E
:101EB00035D0A2F15803D9B2202969D8202B67D890
:101EC000DFE813F0E6006600660066006600660064
:101ED00066006600660066006600AC007000660082
:101EE00066006600660070006600660066006600B8
:101EF00021008300C60066006600B600660083000D
:101F000066006600EC002B682268181D6169286075
:101F100010061B6802D4520600F1E080196000230D
:101F2000E14623613B4621463046CDF8008003AAB6
:101F3000FFF720FF013020D04A463946304623695A
:101F4000C047013019D02368E0689B07DDF80C908A
:101F500018D5484516DD002504F1190A04E0E068AB
:101F6000A0EB0903AB420DDD012352463946304652
:101F7000C047013005F10105F1D14FF0FF3004B049
:101F8000BDE8F0874845B8BF484604B0BDE8F087D3
:101F9000012084F8422004F142090023206184F8E2
:101FA0004330BFE72A682368111D1806296002D450
:101FB000590600F195801068014600286268C0F259
:101FC00093804FF00A0E534815E020682B6810F0FC
:101FD000800F53F8041B02D1400648BF89B26F2A14
:101FE00014BF4FF00A0E4FF0080E4A482B60002332
:101FF000626884F84330002AA26051DB236823F032
:102000000403236000294BD1002A7BD1E146BEF1B5
:10201000080F56D0ACEB0903236183E72A6801203F
:10202000116804322A6004F1420984F84210B4E7CE
:102030002B6800211A1D2A60D3F800906268484678
:1020400000F06CF8002863D0A0EB09006060A4E702
:10205000236843F02003236078222F4884F845202A
:102060002A6813F0800F52F8041B03D113F0400FBD
:1020700018BF89B22A60DA0744BF43F02003236007
:1020800019B9236823F0200323604FF0100EAEE748
:102090005823204884F845302368E1E72368DBE7CC
:1020A0007546E146B1FBF5F30A4605FB131A1946DE
:1020B00010F80A30AA4209F8013DF3D2BEF1080F28
:1020C000A8D12368DD07A5D5626823699A42A1DCFF
:1020D000302309F1FF3989F800309BE719801EE7AA
:1020E000B2F90010084668E72D20002AA26084F8A3
:1020F000430002DB23F0040323600A250548AE46B3
:102100004942CEE7037804F1420984F842307EE781
:10211000606842E7FC790008107A00085FFA81FCE9
:10212000810744D00346511E22B909E09A0709D01D
:10213000013905D31846027801336245F6D170475C
:1021400000207047184603290CD80029F8D0034610
:10215000014401E08B42F3D0184613F8012B62458D
:10216000F8D1704710B50CEB0C24024604EB044484
:1021700002E00439032915D9104652F8043B6340A4
:10218000A3F1013E2EEA030313F0803FF1D0034692
:10219000014401E08B4208D0184613F8012B624538
:1021A000F8D110BD10460029F1D1002010BD114614
:1021B000C9E700BF144600B51A460A4B0D461B6816
:1021C00085B0DE6803464CB10749019130460749A6
:1021D0000294009500F0FAFE00F0B2FD04490C46AE
:1021E000F3E700BF00000020247A0008347A0008DA
:1021F000307A000808B513460022FFF7DBFF00BF66
:1022000070B5C66905460C465EB1F368A3B153F8D4
:102210002400E8B1026843F824200023C0E9033316
:1022200070BD1020FFF796FD0646E861E8B1002377
:10223000C0E90033C0E9023321220421284600F01E
:1022400087FDEB69F060DB68002BE0D1002070BDFA
:102250000121284601FA04F56A1D920000F078FD7C
:102260000028F3D0C0E90145D7E702466B21024BB5
:102270000248FFF79FFF00BFA4790008647A0008B6
:1022800070B5C66905460C464EB13CB1EB69626853
:10229000DB6853F82210216043F8224070BD102003
:1022A000FFF758FDE86120B1C0E90066C0E90266A9
:1022B000EBE702468F21024B0248FFF77BFF00BF8E
:1022C000A4790008647A00082DE9F0414FF0000E6F
:1022D0000E461C460D69074601F1140001680EF117
:1022E000010E8BB202FB0343090C4FEA134C02FBB5
:1022F00001CC9BB203EB0C43754540F8043B4FEA1D
:102300001C44EBDC3CB1B368AB4207DD06EB850354
:1023100001355C6135613046BDE8F0817168384651
:102320000131FFF76DFF804690B1326906F10C0173
:10233000023292000C30FFF797FC31464646384691
:10234000FFF79EFF06EB850301355C613561E2E72F
:102350000246BA21014B0248FFF72CFFE87900083A
:10236000647A00082DE9F8431E460C4626490833D6
:10237000174681FB032C092E4FEAE3730546C3EB96
:102380006C0339DD4FF0010C00214FEA4C0C634522
:1023900001F10101F9DC2846FFF732FF014668B37D
:1023A000089B092F43614FF00103036112DC0927E9
:1023B0000A34BE420BDDF61B264414F8013B0A2208
:1023C0002846303BFFF780FFB4420146F5D108466E
:1023D000BDE8F88304F10909C8463C4418F8013BFC
:1023E0000A222846303BFFF76FFFA0450146F5D192
:1023F000A7F108044C44DCE70021CCE70246D321D6
:10240000024B0348FFF7D6FE398EE338E87900081F
:10241000647A0008B0F5803F03463ABF102083403D
:102420000020B3F1807F3CBF1B020830B3F1805F16
:102430003CBF1B010430B3F1804F03D3002B06DBFC
:10244000013070479B0003D45B0003D42020704709
:1024500002307047033070470368014613F00702EB
:1024600009D0DA0721D498074BBF5B089B080120ED
:1024700002200B60704798B2A0B11046DAB20AB9D8
:1024800008301B0A1A0704BF1B0904309A0704BF4F
:102490009B080230DA0703D45B0800F1010006D084
:1024A0000B6070471020C340E8E7002070472020F1
:1024B000704700BF10B50C460121FFF7A1FE024690
:1024C00018B10123C0E9043410BD40F24511024B9C
:1024D0000248FFF76FFE00BFE8790008647A000841
:1024E0002DE9F04FD1F8108015690E46A8459246A7
:1024F00085B005DB2A46534645468A4690461E4629
:10250000DAF80830DAF8041005EB0804A342B8BF83
:102510000131FFF775FE002800F0898000F11407F3
:1025200007EB840E774505D23B46002243F8042B87
:102530009E45FBD8143606EB88080AF11409464577
:1025400009EB850566D2A5EB0A03153B23F00303CF
:102550000AF1150A043355452CBF9B464FF0040B76
:10256000CDF808E08246AE46039405E0090C2AD176
:10257000B04507F104074AD956F8041B8DB2002D67
:10258000F4D0CC463C46002301965CF8040B21684D
:1025900086B28AB205FB0622000C090C05FB00116D
:1025A0001A4401EB124192B242EA0142E64544F874
:1025B000042B4FEA1143E8D8019E47F80B3056F838
:1025C000041C090CD4D000223B6848461D463C46FA
:1025D000944602889BB201FB02C202EB154243EA19
:1025E000024344F8043B50F8043B25684FEA134C7F
:1025F000ABB201FB0C33704503EB12434FEA134CB3
:10260000E7D3B04547F80B3007F10407B4D8DDE94C
:1026100002E45046002C02DC05E0013C03D05EF8E9
:10262000043D002BF9D0046105B0BDE8F08F0246EF
:102630004FF4B171014B0248FFF7BCFDE879000887
:10264000647A00082DE9F04112F0030314460746AE
:1026500082B02DD10E46A4101CD0FA698AB39568B9
:10266000002D39D0E3074FF0000806D4641011D0D4
:10267000286898B10546E307F8D531462A4638461A
:10268000FFF72EFF0346314638461E46FFF7F8FD9A
:102690006410EDD1304602B0BDE8F0812A462946EB
:1026A0003846FFF71DFF28600546C0F80080E2E7C6
:1026B000184A013B52F823200023FFF705FE064687
:1026C000C9E71020FFF746FB0246F861E0B100239E
:1026D000C0E90033C0E90233012138460192FFF717
:1026E0008FFD019A054640B1012340F27121C0E9F6
:1026F0000431002390600360B4E7024640F24511C4
:10270000054B0648FFF756FD40F2B311044B034852
:10271000FFF750FD00770008E8790008647A0008A8
:10272000A47900082DE9F0470D462F69AB6807EB47
:1027300062177C1C9C429146064649684FEA621A21
:1027400004DD5B009C4201F10101FADC3046FFF739
:1027500057FD804600284ED0BAF1000F00F114005A
:102760000EDD034600210AF105024FEA820C08EB58
:10277000820243F8041B9342FBD1ACF114031844CA
:10278000296905F1140319F01F0903EB81012AD00F
:1027900084464FF0000AC9F1200E1A6802FA09F2C5
:1027A00042EA0A024CF8042B53F8042B994222FA0D
:1027B0000EFAF2D84B1B153B23F00303043305F14B
:1027C0001502914238BF042340F803A0BAF1000F6C
:1027D00000D13C4630462946C8F81040FFF750FD6E
:1027E0004046BDE8F087043853F8042B994240F87E
:1027F000042FF9D8EDE702464FF4EF71014B024880
:10280000FFF7D8FCE8790008647A000884460B6971
:102810000069C01A15D10CF1140C14310CEB8302B1
:1028200010B401EB830301E0944508D252F8044D43
:1028300053F8041D8C42F7D004D24FF0FF3010BC87
:1028400070477047012010BC704700BF2DE9F04F62
:1028500014460A6923698846D21A002A83B040F0D8
:10286000888001F1140604F1140202EB830206EBE6
:10287000830301E09E427FD253F8045D52F8041DA9
:102880008D42F7D076D323460025444698466168AA
:10289000FFF7B6FC002800F0898000F114094946D2
:1028A0004FF0000C2769D8F8106004F1140B08F100
:1028B000140EC56004F110020EEB86060BEB870ABE
:1028C000CDF804B05EF8044B52F8045F1FFA84FBA5
:1028D000ABB2A3EB0B03240C6344C4EB154404EB31
:1028E00023449BB243EA0443764541F8043B4FEA54
:1028F000244CE7D808F115018E4234BF0021012194
:10290000A6EB0806153EB608002906F101024FEABB
:10291000820208BF0422DDF804B00BEB0204A245DA
:102920004A4434D915462146E04651F8046BB3B207
:1029300063444FEA164E0EEB234E06EB08039BB2A0
:1029400043EA0E438A454FEA2E4C45F8043BEBD848
:102950000AF1FF3AAAEB040A2AF0030A524423B907
:1029600052F8043D013F002BFAD0076103B0BDE8E7
:10297000F08F88DA01258AE70021FFF741FC70B16A
:1029800001220023C0E9042303B0BDE8F08F002931
:102990004FEA860608BF002609EB0602DFE702467B
:1029A00040F23721054B0648FFF704FC024640F28F
:1029B0004521024B0248FFF7FDFB00BFE879000804
:1029C000647A0008124B0A460B40A3F15073002BA7
:1029D00003DD00221946104670475B42B3F1A07F29
:1029E0004FEA235106DA4FF4002300220B41194627
:1029F0001046704714391E29D4BF4FF000420122FF
:102A00004FF00003D8BFCA4010461946704700BFB8
:102A10000000F07FF8B5046900F1140202EB8404B1
:102A200054F8045C261F2846FFF7F4FC0346C0F167
:102A300020000A2B086030DDB242A3F10B071AD246
:102A400054F8083C1FB3C7F1200C23FA0CF1BD4029
:102A500045EA0106A4F1080546F07F51AA4203FAAF
:102A600007F341F4401116D254F80C2C22FA0CF260
:102A700013431846F8BD0B2B08D0002305FA07F7BF
:102A800047F07F51184641F44011F8BD002345F04E
:102A90007F5141F440111846F8BDB2422CBF0022CC
:102AA00054F8082CC3F10B0703F1150325FA07FCB2
:102AB00038BFFA4005FA03F34CF07F511343184630
:102AC00041F44011F8BD00BFF0B5012183B01646B6
:102AD0001F46FFF795FB0546002847D0C7F30A5469
:102AE000C7F313030CB143F48013002E019314D1E8
:102AF00001A8FFF7B1FC0122019B20306B612A6124
:102B000014B3089BA4F2334404441C60099BC0F135
:102B100035001860284603B0F0BD68460096FFF700
:102B20009BFC019B00B30099C0F1200203FA02F262
:102B3000C34001930A43002B6A610CBF01220222A9
:102B4000AB612A61002CDCD105EB8201A0F232439B
:102B5000086908990B60FFF75DFC099BC0EB421008
:102B60001860284603B0F0BD009AE4E7024640F240
:102B70000F31024B0248FFF71DFB00BFE879000848
:102B8000647A00082DE9F04383B08846694681469F
:102B9000FFF740FF04460D46404601A9FFF73AFF04
:102BA000D9F81030D8F81020A3EB020CDDE9003280
:102BB0009B1A03EB4C13002B0BDD05EB03573D4633
:102BC00002460B462046294601F018FE03B0BDE838
:102BD000F083C3EB033301EB03594946F0E700BF31
:102BE000172870B506460ADD002000240749084D65
:102BF00022462B4601F0D8FC013EF9D170BD054BB1
:102C000003EBC003D3E9040170BD00BF0000F03F37
:102C1000000024400077000801F1FF3C116902F137
:102C200014034FEA6C1C03EB81010CF1010C8B4285
:102C300000EB8C0C16D210B5A0F1040E53F8044B27
:102C400099424EF8044FF9D88B1A153B23F0030331
:102C500004331844844504D9002340F8043B8445D8
:102C6000FBD810BD844505D9002340F8043B8445BA
:102C7000FBD87047704700BF03694A11934200F1C7
:102C8000140009DA00EB830302E053F8042DA2B923
:102C90008342FAD80020704700EB8203F8DD11F080
:102CA0001F01F5D010B450F8224024FA01F28A40F6
:102CB000944208D0012010BC70470120704753F89F
:102CC000042D002AF6D18342F9D8002010BC7047A9
:102CD00020F0030110F00300C0F1000051F8043BA4
:102CE00000F1040C4FEACC0C6FF000021CBF22FA7A
:102CF0000CF213434FF0010C4CEA0C2C4CEA0C4C38
:102D0000A3EB0C0222EA030212EACC1204BF51F830
:102D1000043B0430F4D0C2F1000102EA0102B2FA2D
:102D200082F2C2F11F0200EBD2007047F030704710
:102D300000487047400100200048704740010020D3
:102D4000062008B500F05CFD012001F0B3FF00BFD4
:102D500070B5A1FB025454B9294600F033F8064679
:102D600018B12A462146FDF7BDFB304670BD0C2246
:102D700000260260F9E700BF70B5114E05463368C2
:102D80000C46BBB12146284600F0FCFA431C014624
:102D90000CD0C41C24F00304A04205D02846611ABC
:102DA00000F0F0FA013001D0204670BD4FF0FF3442
:102DB000204670BD194600F0E5FA3060E2E700BF3A
:102DC000D00100202DE9F843CD1C25F0030508357E
:102DD0000C2D38BF0C25002D064618DBA94216D84D
:102DE000DFF8DC8000F006F9D8F80420A2B1144620
:102DF00003E0636822467BB11C4623685B1BF8D462
:102E00000B2B1FD89442636854D053600CE00C2302
:102E100033600020BDE8F88329463046FFF7ACFF59
:102E2000431C044619D00560304600F0E5F804F173
:102E30000B00231D20F00700C21A1CBF1B1AA35051
:102E4000BDE8F88361199442256014BF5160C8F849
:102E50000410635163684B60E6E7D8F804701FB351
:102E60003C467F68002FFBD123683946304604EB8F
:102E7000030900F087FA814516D123683046ED1A20
:102E80002946FFF779FF01300ED02368D8F80420D7
:102E90002B442360536883B1A34203D01A465B6876
:102EA0009C42FBD10023B0E70C233046336000F096
:102EB000A3F8AEE7C8F80430B6E7C8F80470B3E783
:102EC000D0010020002950D038B551F8043C0C1F27
:102ED000002BB8BFE418054600F08CF8274A1368A9
:102EE0002BB1A3420CD92168601883422CD028460C
:102EF00063601460BDE8384000F07EB8A3420FD88C
:102F00001A465B68002BF9D111685018844217D01B
:102F10002CD3636054602846BDE8384000F06CB89C
:102F200011685018A04214D020D82168601883423C
:102F3000EFD118685B680844C4E900035460EAE70D
:102F400023680B441360E6E718685B680844206058
:102F5000CDE720680144501883421160DBD1D3E9EA
:102F600000040144C2E90014D5E770470C23284649
:102F70002B60BDE8384000F03FB800BFD40100200E
:102F800010B4034CD4F8E040A44610BC604700BF26
:102F900050000020034649B1FF2A02D801200A70E0
:102FA00070478A224FF0FF301A607047084670471A
:102FB0000CB400B583B004AB53F8042B019300F0BC
:102FC00059F803B05DF804EB02B070470EB400B5D9
:102FD000074A82B003AB0146106853F8042B0193F3
:102FE00000F048F802B05DF804EB03B0704700BF92
:102FF00000000020704700BF704700BF9368013B8E
:10300000002B936005DAD2F818C0634507DB0A2964
:1030100005D01368581C106008461970704700F0FE
:1030200063B900BF9BB1F8B5134406460F46541E62
:103030005D1E01E0AC4208D03A46304614F8011F4C
:10304000FFF7DCFF431CF5D1F8BD0020F8BD0020E0
:10305000704700BF936810B514461BB9184600238B
:10306000636010BD00F0A0F90023A360002363603B
:1030700010BD00BF2DE9F04FA1B08B4691461C4614
:10308000049018B1036A002B00F01381BBF80C30D8
:10309000180740F18E80DBF81030002B00F089809B
:1030A000002343F220020D9399F800300127824E4D
:1030B0000794ADF83920002B73D04D4603E015F886
:1030C000013F002B7FD0252BF9D1B5EB090A7DD12B
:1030D0002B78002B65D000234FF0FF320135CDE96E
:1030E000092308930B938DF863301E9306E0254661
:1030F000089B801B07FA00F0034308932C46052227
:1031000014F8011B3046FFF709F8A1460028EED15C
:10311000089BD90644BF20228DF863201A0748BFB8
:103120002B22297848BF8DF863202A2964D1079A79
:103130001168043200290792C0F296800B916978D9
:103140002E296FD05D4C03222046FEF7E7FF38B1F1
:103150004022089B001B8240134309F10109089398
:1031600019F8011B062256488DF83810FEF7D6FFD5
:1031700000287FD0534B002B69D007A900915A46F5
:103180000498514B08A9FDF7D5FA0390039B01332E
:1031900007D00D9B039A13440D9399F80030002B30
:1031A0008BD1BBF80C305B060AD40D9821B0BDE87A
:1031B000F08F5946049800F03DFE00283FF470AFB0
:1031C0004FF0FF30F2E7B5EB090AEAD009F1FF381A
:1031D00005954546DDF8108001E0A2453ED92C4614
:1031E0005A46404615F8011FFFF708FF0234013028
:1031F000A4EB0904F1D1D4E7A1F13002092A88BF78
:10320000A9469DD80B9B00E00134217803EB830392
:1032100002EB4303A1F13002092AF5D92E29A14678
:103220000B938FD199F801102A292DD1079B09F111
:1032300002001A680433002A0793B8BF4FF0FF3327
:1032400099F8021009928146B8BF09937AE7079B63
:10325000073323F00703083307939AE70D99059D79
:1032600051442B780D9134E7494243F002030B910E
:10327000089364E707A900915A460498124B08A9DD
:10328000FEF70AFE039081E70023A1F13002092A2C
:1032900009F1010909933FF655AF19F8011F03EB36
:1032A000830302EB4303A1F13002092AF5D9099304
:1032B00048E700F02BFCE9E6A47A0008AC7A0008A5
:1032C000B07A000835070008253000088C4600B5A4
:1032D00086461346034A714610685DF804EB624661
:1032E000FFF7C8BE00000020F8B506460D4614469C
:1032F00010B1036A002B37D0A269A389A2601A0714
:1033000019D52369BBB122686169D31AEDB299421C
:103310002F4620DD0133A1680139A160511C2160D5
:10332000157062699A420DD0A389DB0701D50A2D79
:1033300008D03846F8BD2146304600F07BFD38B94C
:103340002369E0E72146304600F092FC0028F0D0E7
:103350004FF0FF37EDE72146304600F089FC0028AA
:10336000F6D101232268D6E700F0D0FBC4E700BF06
:1033700003460A46024908681946FFF7B5BF00BF71
:1033800000000020002238B5064D044608462A6099
:1033900001F0F2FB431C00D038BD2B68002BFBD0A2
:1033A000236038BD140300209368002B00F0F080E8
:1033B0002DE9F04FB1F90CC090461CF0080F814682
:1033C0000C4683B02BD00B694BB31CF00207D8F826
:1033D000006032D04FF0000A5546D4F828B0216A78
:1033E000AB4FC5B1BD422B46524628BF3B4648466F
:1033F000D847002840F3C280D8F8083082441B1A0E
:103400002D1AC8F80830002B00F0AE80D4F828B090
:10341000216A002DE6D1D6E900A50836E1E721466C
:10342000484600F007FD002840F0AD80B4F90CC01C
:10343000D8F800601CF00207CCD11CF0010A63D15F
:1034400057462368A16818468B46002F58D01CF4B5
:10345000007F00F0B180B9420A4600F2DD801CF422
:10346000906F2FD0216962695D1A02EB420202EB74
:10347000D2726B1C52103B44934292BF93469B46C0
:103480001A461CF4806F00F0E68011464846FFF7AC
:1034900099FC002800F0F5802A4621690190FEF78A
:1034A000E3FBA289019B22F4906242F08002A28198
:1034B0005819C4F814B0ABEB05053A46BB46236176
:1034C000A56020603D4600275146019200F012FCA5
:1034D000A1682368019AA1EB0B011A44A160226044
:1034E000D8F80830AA445B1BC8F80830002B3BD042
:1034F0002368A16818468B46B4F90CC0002FA6D1EA
:10350000D6E900A708369EE73846BB463D46002D63
:1035100040D0002845D03A46D4E904C32068AA42E6
:1035200028BF2A466045A16804D901EB030A524529
:1035300000F38280934272DC5A464846216AD4F8EE
:1035400028C0E047B0F1000A18DDB7EB0A070FD03A
:103550000120D8F80830D344A3EB0A03A5EB0A05F1
:10356000C8F80830002BD2D1002003B0BDE8F08F9E
:103570002146484600F07CFB0028EAD0B4F90C3024
:1035800043F04003A3814FF0FF3003B0BDE8F08F5C
:1035900000207047756833460836002DFAD0D3F8FE
:1035A00000B02A460A215846FEF7B8FD002865D02B
:1035B0000130A0EB0B07AEE722699A4214D365698C
:1035C000BD4211D86FF00043BB4228BF3B4693FB7E
:1035D000F5F3524605FB03F34846A56A216AA8475E
:1035E000051ECBDD7F1B7BE7B94228BF39460D4660
:1035F000184651462A4600F07DFBA1682368491B06
:103600002B44A16023600029ECD12146484600F0FC
:103610002FFB0028E6D0B1E7BB463A4652E75946B1
:10362000019200F067FB019AA36892469B1AA3607F
:1036300023681344236088E75946524600F05AFB3A
:103640002368214653444846236000F011FB0028BC
:103650003FF47BAF92E7484600F04EFC034600285B
:103660007FF426AF48462169FFF72CFC0C22B4F901
:103670000C30C9F8002023F0800381E76A1C17464C
:103680004AE70C22B4F90C30C9F8002078E700BFF3
:1036900000FCFF7F10B4034CD4F8E440A44610BCF7
:1036A000604700BF5000002082B049B15AB16BB1F1
:1036B00013780B601278101E18BF012002B07047FB
:1036C00001A9002AF3D1104602B070476FF0010043
:1036D000F4E700BF38B5C46B0CB1002038BD8021C1
:1036E0000546FFF76FFB0246E86330B1031F7C32EB
:1036F00043F8044F9342FBD1EFE74FF0FF3038BD62
:1037000030B51F29054683B008D8C36B0C4653B1AA
:1037100053F8240043F8242003B030BD162303607F
:103720004FF0FF30F8E780210192FFF74BFB019A41
:103730000346E8630028F3D0011F00F17C05002058
:1037400041F8040FA942FBD1E2E700BF1F2938B5B9
:1037500005461ED8C26B0C466AB152F8213053B1EF
:10376000012B06D0591C10D00021204642F824100D
:103770009847002038BD284600F0F0FC224601465C
:103780002846BDE8384000F0D5BC162301202B6048
:1037900038BD16234FF0FF302B6038BD1F292BD8C2
:1037A00038B5C36B0C460546A3B153F8242003EB90
:1037B00084034AB1511C0BD0012A07D000252046B2
:1037C0001D609047284638BD012038BD032038BD14
:1037D000022038BD8021FFF7F5FA0346E86340B1C7
:1037E00000201A1F03F17C0142F8040F8A42FBD12A
:1037F000DBE74FF0FF3038BD4FF0FF30704700BFC0
:1038000038B5134B1F281D681DD8EA6B044662B1FA
:1038100052F820304BB1012B05D0591C0FD000219C
:1038200042F820109847002038BD284600F096FC4A
:10383000224601462846BDE8384000F07BBC1623EE
:1038400001202B6038BD16234FF0FF302B6038BDB0
:1038500000000020114B1F2870B51E6808D8F36BBC
:1038600004460D464BB153F8240043F8245070BD74
:10387000162333604FF0FF3070BD80213046FFF7D4
:10388000A1FA0346F0630028F4D00021021F7C3027
:1038900042F8041F8242FBD1E5E700BF0000002090
:1038A00038B50B4B1D68EC6B0CB1002038BD802186
:1038B0002846FFF787FAE86338B1031F00F17C025E
:1038C00043F8044F9342FBD1EFE74FF0FF3038BD90
:1038D0000000002038B5174B1F281D6826D8044665
:1038E000E86BA0B150F8242000EB84034AB1511CCE
:1038F0000BD0012A07D0002520461D60904728469E
:1039000038BD012038BD032038BD022038BD8021DC
:103910002846FFF757FAE86340B10021031F00F182
:103920007C0243F8041F9342FBD1DBE74FF0FF30EA
:1039300038BD00BF0000002000207047024A034944
:10394000034800F055BA00BFBC010020713C0008DC
:10395000040000200C4B416810B59942044601D088
:1039600000F086F9A168094B994202D0204600F088
:103970007FF9E168064B994204D02046BDE810402B
:1039800000F076B910BD00BFD80100204002002031
:10399000A8020020002070472DE9F84300250423E9
:1039A000294C2A490822C4F8381104F15C00294640
:1039B000DFF89C90DFF89C80274F284EC4E9033540
:1039C000C4E90055C4E90555A5606566FCF78AFDA4
:1039D000234B0822294604F1C4006367C4E908495F
:1039E000C4E90A87C4E91A55C4E91E552663256748
:1039F000C4F8CC50C4F88050FCF774FD194B29462C
:103A0000C4F8DC30082204F1680304F59670C4F8A9
:103A10008830C4E92398C4E92576C4E93455C4E95B
:103A20003855C4F8D850C4F83451C4F8E850FCF7FD
:103A300059FD04F1D003C4E93D98C4E93F76C4F8C8
:103A4000F030BDE8F88300BFD80100203D39000800
:103A500091400008B9400008F94000081D410008E5
:103A60000900010012000200F8B5254B0646D3F804
:103A70003831002B3CD0234FD7E90134013B04D52A
:103A80001DE05A1C04F1680419D0B4F90C50013B34
:103A9000002DF6D11C4B08222946C4E90155C4E982
:103AA0000455E36065662560A56104F15C00FCF7E0
:103AB00019FDC4E90D55C4E912552046F8BD3D680D
:103AC0000DB12F46D8E74FF4D6713046FFF77AF99B
:103AD000044680B104230560294625460C304FF486
:103AE000D072A0606360FCF7FDFC3C602F46C3E72A
:103AF000FFF752FFBFE70C2338603360DDE700BFFC
:103B0000D8010020BC0100200100FFFF036A03B1BF
:103B10007047044B044AD3F838310262002BF7D1C6
:103B20003AE700BFD801002055390008704700BFB0
:103B3000704700BF0020024A024900F059B900BF97
:103B4000BC010020393900080020024A024900F077
:103B50004FB900BFBC01002095390008F8B5B1F994
:103B60000C300C461E07074639D44A68002A53DD3C
:103B7000E56A002D31D000223E683A6013F480528D
:103B8000216A55D101233846A847451C024663D017
:103B9000B4F90C30E56A216A580705D56368D21A72
:103BA000636B0BB1236CD21A00233846A847421C22
:103BB00040D00022236962602360A389DB0400D522
:103BC0006065616B3E6041B104F14403994202D0EB
:103BD0003846FFF777F9002363630020F8BD0E69CC
:103BE000002EFAD09B0718BF00230D6808BF4B6951
:103BF0000E60AD1B8B600CE02B463246D4F828C01B
:103C00003846216AE047B0F1000CA5EB0C0566448C
:103C100006DD002DF0DCE0E70A6C002AA8DCDCE71A
:103C2000B4F90C3043F040034FF0FF30A381F8BDEE
:103C3000626DB1E73968B4F90C301D29F2D80B4A2E
:103C4000CA40D507EED50022626022692260DA04FC
:103C5000B7D50029B4D0B4E73B68002B98D01D2B12
:103C600001D0162BDCD13E60B7E700BF0100402039
:103C70000B69B3B110B5044682B008B1036A5BB1F9
:103C8000B1F90C3013B9002002B010BD204602B0CB
:103C9000BDE81040FFF762BF0191FFF737FF0199C0
:103CA000EEE70020704700BFB8B138B50D4A036990
:103CB000044615682BB10DB12B6A53B1B4F90C3021
:103CC0000BB9002038BD21462846BDE83840FFF733
:103CD00045BF2846FFF71AFFF0E7034A03490448A7
:103CE00000F086B800000020BC010020713C0008F4
:103CF0000400002088420ED98B1883420BD900EBB8
:103D0000020C002A6DD0624613F801CD994202F8E8
:103D100001CDF9D170470F2A0FD8034602F1FF3CBD
:103D2000002A5ED00CF1010C013B8C4411F8012BF0
:103D3000614503F8012FF9D1704740EA01039B0761
:103D400050D1A2F1100370B501F1200C23F00F0542
:103D500001F1100E00F11004AC441B095EF8105C78
:103D60000EF1100E44F8105C5EF81C5C103444F840
:103D70001C5C5EF8185C44F8185C5EF8145CE64560
:103D800044F8145CEAD1013312F00C0F01EB03117B
:103D900002F00F0400EB031328D08E46043C24F0FD
:103DA00003064FEA940C1E441C1F5EF8045B44F8A3
:103DB000045FB442F9D10CF1010402F0030203EBF9
:103DC000840301EB840102F1FF3C4AB10CF1010CC8
:103DD000013B8C4411F8012B614503F8012FF9D107
:103DE00070BD7047034602F1FF3C9BE72246EAE7BD
:103DF0002DE9F8434FF0000980460F461646D6E9F4
:103E00000154013D10D4A389012B08D9B4F90E3017
:103E1000013304D021464046B84749EA0009013D34
:103E20006B1C04F16804EED13668002EE7D14846D9
:103E3000BDE8F88338B52F4B05461B680C4613B117
:103E40001A6A002A4BD0B4F90C3018071CD5226925
:103E500022B313F0010107D000206169A06049423C
:103E6000A1613AB1002038BD980758BF6169A160CF
:103E7000002AF7D1190658BF1046F4D543F0400385
:103E8000A3814FF0FF3038BDD9062CD55A0712D484
:103E9000226943F00803A381002ADAD103F42071D8
:103EA000B1F5007FD5D02146284600F057F8B4F987
:103EB0000C302269CDE7616B51B104F144029142AB
:103EC00004D02846FEF7FEFFB4F90C3000226263EE
:103ED0000021226923F02403C4E90021D9E7184610
:103EE000FFF714FEAFE7092243F040032A60A381E5
:103EF000C7E700BF000000202DE9F041144641B3A0
:103F00000AB306460D4600F00DF98442074602D872
:103F1000B4EB500F13D821463046FEF753FF8046CE
:103F200050B1BC422246294628BF3A46FDF79CFEC6
:103F300029463046FEF7C6FF4046BDE8F081A84658
:103F40004046BDE8F081A046FEF7BCFF4046BDE814
:103F5000F0811146BDE8F041FEF734BF70B5B1F90C
:103F60000C300C46990796B007D5012204F147039F
:103F7000C4E90432236016B070BDB4F90E100546D2
:103F8000002929DB6A4600F013F9002822DB4FF4F0
:103F900080612846019EFEF715FF88B3A38906F4C9
:103FA000704643F08003A3814FF48063B6F5005F51
:103FB000C4E904032060DED12846B4F90E1000F0F5
:103FC00055F80028D7D0A38923F0030343F0010359
:103FD000A381D0E7B4F90C3013F0800F14BF402652
:103FE0004FF4806628463146FEF7ECFE40B1A389C7
:103FF000C4E9040643F080032060A38116B070BDBD
:10400000B4F90C309A05B6D4012123F0030304F16E
:10401000470243F00203C4E90421A3812260AAE716
:1040200070B50C46B1F90E10154600291E4696B023
:104030000FDB6A4600F0BCF800280ADB019B4FF456
:10404000806203F47043A3F50053B3FA83F35B0972
:1040500007E0A289002312F0800F14BF40224FF422
:104060008062002033602A6016B070BD002238B52F
:10407000064D044608462A6000F03CFE431C00D072
:1040800038BD2B68002BFBD0236038BD1403002003
:1040900010B50C46B1F90E1000F074F8002803DBDF
:1040A000636D0344636510BDA38923F48053A3812A
:1040B00010BD00BF002070472DE9F0410C46B1F95A
:1040C0000C101F46CB05054616460BD421F4805133
:1040D000A1813B4632462846B4F90E10BDE8F041B6
:1040E00000F090B8B4F90E100223002200F074F82A
:1040F000B4F90C10EAE700BF10B50C46B1F90E1088
:1041000000F06AF8B4F90C30421C0EBF23F480535F
:1041100043F480536065A38110BD00BFB1F90E1058
:1041200000F01EB851F8043C181F002BBCBF0B5800
:10413000C018704770B50026074D04460846114662
:104140002E6000F011FD431C00D070BD2B68002BC9
:10415000FBD0236070BD00BF1403002000F0FCBC46
:10416000002238B5064D044608462A6000F0A8FD36
:10417000431C00D038BD2B68002BFBD0236038BD1A
:104180001403002038B50C46114600228446074D22
:1041900020462A601A46644600F0C2FD431C00D047
:1041A00038BD2B68002BFBD0236038BD14030020E2
:1041B00070B50026074D0446084611462E6000F0F3
:1041C0008AFD431C00D070BD2B68002BFBD0236000
:1041D00070BD00BF1403002038B50C461146002204
:1041E0008446074D20462A601A46644600F08CFD3E
:1041F000431C00D038BD2B68002BFBD0236038BD9A
:104200001403002038B50C46114600228446074DA1
:1042100020462A601A46644600F08EFD431C00D0FA
:1042200038BD2B68002BFBD0236038BD1403002061
:1042300081F0004102E000BF83F0004330B54FEA57
:1042400041044FEA430594EA050F08BF90EA020FC4
:104250001FBF54EA000C55EA020C7FEA645C7FEA57
:10426000655C00F0E2804FEA5454D4EB5555B8BF7A
:104270006D420CDD2C4480EA020281EA030382EAEB
:10428000000083EA010180EA020281EA0303362D7D
:1042900088BF30BD11F0004F4FEA01314FF4801C50
:1042A0004CEA113102D0404261EB410113F0004F62
:1042B0004FEA03334CEA133302D0524263EB430319
:1042C00094EA050F00F0A780A4F10104D5F1200EB7
:1042D0000DDB02FA0EFC22FA05F2801841F1000112
:1042E00003FA0EF2801843FA05F359410EE0A5F1E6
:1042F00020050EF1200E012A03FA0EFC28BF4CF017
:10430000020C43FA05F3C01851EBE37101F00045CC
:1043100007D54FF0000EDCF1000C7EEB00006EEBD9
:104320000101B1F5801F1BD3B1F5001F0CD3490863
:104330005FEA30004FEA3C0C04F101044FEA4452BA
:1043400012F5800F80F09A80BCF1004F08BF5FEA41
:10435000500C50F1000041EB045141EA050130BD21
:104360005FEA4C0C404141EB0101013C28BFB1F533
:10437000801FE9D291F0000F04BF01460020B1FA7E
:1043800081F308BF2033A3F10B03B3F120020CDA51
:104390000C3208DD02F1140CC2F10C0201FA0CF02F
:1043A00021FA02F10CE002F11402D8BFC2F1200C94
:1043B00001FA02F120FA0CFCDCBF41EA0C0190404A
:1043C000E41AA2BF01EB0451294330BD6FEA040493
:1043D0001F3C1CDA0C340EDC04F11404C4F120027E
:1043E00020FA04F001FA02F340EA030021FA04F390
:1043F00045EA030130BDC4F10C04C4F1200220FAE7
:1044000002F001FA04F340EA0300294630BD21FA24
:1044100004F0294630BD94F0000F83F4801306BFEA
:1044200081F480110134013D4EE77FEA645C18BFDE
:104430007FEA655C29D094EA050F08BF90EA020F75
:1044400005D054EA000C04BF1946104630BD91EA6D
:10445000030F1EBF0021002030BD5FEA545C05D170
:104460004000494128BF41F0004130BD14F58004AF
:104470003CBF01F5801130BD01F0004545F0FE4123
:1044800041F470014FF0000030BD7FEA645C1ABF58
:10449000194610467FEA655C1CBF0B46024650EA8F
:1044A000013406BF52EA033591EA030F41F40021BB
:1044B00030BD00BF90F0000F04BF0021704730B541
:1044C0004FF4806404F132044FF000054FF0000116
:1044D00050E700BF90F0000F04BF0021704730B5D7
:1044E0004FF4806404F1320410F0004548BF4042AC
:1044F0004FF000013EE700BF42004FEAE2014FEA01
:1045000031014FEA02701FBF12F07F4393F07F4FDB
:1045100081F06051704732F07F4208BF704793F0DE
:104520007F4F04BF41F40021704730B54FF46074F1
:1045300001F0004521F000411CE700BF50EA0102F4
:1045400008BF704730B54FF000050AE050EA01029D
:1045500008BF704730B511F0004502D5404261EB0D
:1045600041014FF4806404F132045FEA915C3FF44E
:10457000D8AE4FF003025FEADC0C18BF03325FEAEB
:10458000DC0C18BF033202EBDC02C2F1200300FA9C
:1045900003FC20FA02F001FA03FE40EA0E0021FAC1
:1045A00002F11444BDE600BF70B54FF0FF0C4CF4AF
:1045B000E06C1CEA11541DBF1CEA135594EA0C0F61
:1045C00095EA0C0F00F0DEF82C4481EA030621EA9C
:1045D0004C5123EA4C5350EA013518BF52EA0335D7
:1045E00041F4801143F4801338D0A0FB02CE4FF089
:1045F0000005E1FB02E506F00042E0FB03E54FF0B9
:104600000006E1FB03569CF0000F18BF4EF0010EB0
:10461000A4F1FF04B6F5007F64F5407404D25FEAAC
:104620004E0E6D4146EB060642EAC62141EA55515F
:104630004FEAC52040EA5E504FEACE2EB4F1FD0CA1
:1046400088BFBCF5E06F1ED8BEF1004F08BF5FEA1F
:10465000500E50F1000041EB045170BD06F00046D1
:1046600046EA010140EA020081EA0301B4EB5C047E
:10467000C2BFD4EB0C0541EA045170BD41F4801176
:104680004FF0000E013C00F3AB8014F1360FDEBF9B
:10469000002001F0004170BDC4F10004203C35DA77
:1046A0000C341BDC04F11404C4F1200500FA05F3FA
:1046B00020FA04F001FA05F240EA020001F000429B
:1046C00021F0004110EBD37021FA04F642EB060111
:1046D0005EEA430E08BF20EAD37070BDC4F10C043B
:1046E000C4F1200500FA04F320FA05F001FA04F2FF
:1046F00040EA020001F0004110EBD37041F10001EB
:104700005EEA430E08BF20EAD37070BDC4F12005F5
:1047100000FA05F24EEA020E20FA04F301FA05F25D
:1047200043EA020321FA04F001F0004121FA04F205
:1047300020EA020000EBD3705EEA430E08BF20EAD5
:10474000D37070BD94F0000F0FD101F0004640000F
:1047500041EB010111F4801F08BF013CF7D041EA91
:10476000060195F0000F18BF704703F00046520095
:1047700043EB030313F4801F08BF013DF7D043EA66
:104780000603704794EA0C0F0CEA135518BF95EA1C
:104790000C0F0CD050EA410618BF52EA4306D1D1A3
:1047A00081EA030101F000414FF0000070BD50EAC2
:1047B000410606BF1046194652EA430619D094EA4C
:1047C0000C0F02D150EA013613D195EA0C0F05D136
:1047D00052EA03361CBF104619460AD181EA03018A
:1047E00001F0004141F0FE4141F470014FF0000042
:1047F00070BD41F0FE4141F4780170BD70B54FF0DD
:10480000FF0C4CF4E06C1CEA11541DBF1CEA13555C
:1048100094EA0C0F95EA0C0F00F0A7F8A4EB05043E
:1048200081EA030E52EA03354FEA013100F0888035
:104830004FEA03334FF0805545EA131343EA1263FE
:104840004FEA022245EA111545EA10654FEA0026B3
:104850000EF000419D4208BF964244F1FD0404F56C
:10486000407402D25B084FEA3202B61A65EB0305C8
:104870005B084FEA32024FF480104FF4002CB6EB85
:10488000020E75EB030E22BFB61A754640EA0C0005
:104890005B084FEA3202B6EB020E75EB030E22BF45
:1048A000B61A754640EA5C005B084FEA3202B6EB86
:1048B000020E75EB030E22BFB61A754640EA9C0045
:1048C0005B084FEA3202B6EB020E75EB030E22BF15
:1048D000B61A754640EADC0055EA060E18D04FEAD3
:1048E000051545EA16754FEA06164FEAC30343EA73
:1048F00052734FEAC2025FEA1C1CC0D111F4801F40
:104900000BD141EA00014FF000004FF0004CB6E738
:1049100011F4801F04BF01430020B4F1FD0C88BFD7
:10492000BCF5E06F3FF6AFAEB5EB030C04BFB6EBE2
:10493000020C5FEA500C50F1000041EB045170BDD5
:104940000EF0004E4EEA113114EB5C04C2BFD4EB02
:104950000C0541EA045170BD41F480114FF0000E86
:10496000013C90E645EA060E8DE60CEA135594EA02
:104970000C0F08BF95EA0C0F3FF43BAF94EA0C0F05
:104980000AD150EA01347FF434AF95EA0C0F7FF47A
:1049900025AF104619462CE795EA0C0F06D152EACE
:1049A00003353FF4FDAE1046194622E750EA4106B2
:1049B00018BF52EA43067FF4C5AE50EA41047FF4C3
:1049C0000DAF52EA43057FF4EBAE12E74FF0FF3C28
:1049D00006E000BF4FF0010C02E000BF4FF0010CF9
:1049E0004DF804CD4FEA410C7FEA6C5C4FEA430C72
:1049F00018BF7FEA6C5C1BD001B050EA410C0CBFC1
:104A000052EA430C91EA030F02BF90EA020F002022
:104A1000704710F1000F91EA030F58BF994208BF89
:104A200090422CBFD8176FEAE37040F00100704746
:104A30004FEA410C7FEA6C5C02D150EA013C07D19D
:104A40004FEA430C7FEA6C5CD6D152EA033CD3D0E8
:104A50005DF8040B704700BF8446104662468C46E2
:104A60001946634600E000BF01B5FFF7B7FF002815
:104A700048BF10F1000F01BD4DF808EDFFF7F4FF3E
:104A80000CBF012000205DF808FB00BF4DF808EDC9
:104A9000FFF7EAFF34BF012000205DF808FB00BFEC
:104AA0004DF808EDFFF7E0FF94BF012000205DF80E
:104AB00008FB00BF4DF808EDFFF7CEFF94BF0120C3
:104AC00000205DF808FB00BF4DF808EDFFF7C4FFBC
:104AD00034BF012000205DF808FB00BF4FEA410C05
:104AE0007FEA6C5C02D150EA013C0AD14FEA430CE8
:104AF0007FEA6C5C02D152EA033C02D14FF0000025
:104B000070474FF0010070474FEA410212F5001262
:104B100015D211D56FF47873B3EB625212D94FEA04
:104B2000C12343F0004343EA505311F0004F23FAEE
:104B300002F018BF404270474FF00000704750EA43
:104B4000013005D111F0004008BF6FF00040704700
:104B50004FF00000704700BF5822024B4FF0FF306B
:104B60001A607047140300205822024B4FF0FF30A8
:104B70001A60704714030020044A05491368002B8B
:104B800008BF0B46184410601846704718030020F1
:104B9000782C002000F024F80B480C490C4A002324
:104BA00002E0D458C4500433C4188C42F9D3094AE3
:104BB000094C002301E013600432A242FBD3FBF74F
:104BC00069FC00F0CBF8704700000020D001002005
:104BD000C07A0008D0010020742C0020FEE70000FD
:104BE00080B400AF2F4B1B682E4A43F48033136010
:104BF00000BF2C4B1B6803F40033002BF9D02A4B69
:104C00001B68294A43F010031360274B1B68264A90
:104C100023F007031360244B1B68234A43F004036B
:104C20001360204B1F4A5B6853601E4B5B681D4A34
:104C300043F4806353601B4B1A4A5B685360194B03
:104C40005B68184A23F47C135360164B5B68154A63
:104C500043F4E8135360134B1B68124A43F080730C
:104C6000136000BF0F4B1B6803F00073002BF9D0DB
:104C70000C4B5B680B4A23F003035360094B5B68E2
:104C8000084A43F00203536000BF064B5B6803F021
:104C90000C03082BF9D1054B054A1A6000BFBD462D
:104CA00080BC70470010024000200240C801002074
:104CB00000A24A0480B483B000AF786000BFFDE773
:104CC00080B483B000AF78604FF0FF3318460C37E4
:104CD000BD4680BC704780B483B000AF7860396057
:104CE0003B684FF400525A60002318460C37BD460B
:104CF00080BC704780B483B000AF78600123184651
:104D00000C37BD4680BC704780B485B000AFF860FA
:104D1000B9607A60002318461437BD4680BC7047DE
:104D200080B485B000AFF860B9607A60002318469F
:104D30001437BD4680BC704780B485B000AFF860C2
:104D4000B9607A607B6818461437BD4680BC7047EE
:104D500080B400AF00BFBD4680BC704780B500AFD7
:104D600000F00CF800F082F800F0E8F900F016FA14
:104D700000F004FB01F042FA00BFFDE780B483B00D
:104D800000AF264B9B69254A43F401739361234B83
:104D90005B68224A23F440435360204B5B681F4A00
:104DA00043F4004353601E4B1B681D4A23F00F035E
:104DB00013601C4B1B691B4A43F003031361194B1F
:104DC0009B68184A43F00103936000237B6002E074
:104DD0007B6801337B607B68632BF9DD114B9B683B
:104DE000104A43F00803936000BF0E4B9B6803F02A
:104DF0000803002BF9D10B4B9B680A4A43F00403CC
:104E0000936000BF074B9B6803F00403002BF9D1AC
:104E100000BF00BF0C37BD4680BC70470010024089
:104E2000000801400024014080B400AF0E4B002276
:104E30005A630D4B1B680C4A23F0020313600A4BA4
:104E40009B68094A43F00103936000BF064B1B684F
:104E500003F00203002BF9D0034BDB6C9BB2184626
:104E6000BD4680BC704700BF0024014080B582B0C1
:104E700002AF184B1B68002B07D1002202210A2029
:104E800000F020FC0346134A1360134B1B68002BF1
:104E900007D100220421012000F014FC03460E4A31
:104EA0001360002301930223009300234FF48072C8
:104EB0000A490B4800F0E9FF002301930223009305
:104EC00000234FF480720749074800F0DEFF00BF5F
:104ED000BD4680BD1C03002020030020A0760008F2
:104EE000ED4E0008AC760008314F000880B584B064
:104EF00000AF786001F0BCFA0346BB60FFF794FF97
:104F00000346FB81094B1B68002B07D0074B186831
:104F100007F10E010023002200F032FC07F1080324
:104F20000221184601F0CEF8E8E700BF1C0300207C
:104F300080B58CB000AF786007F11003184600F020
:104F40002BF8134B1B6807F10E014FF0FF32184688
:104F500000F026FD0346012BF3D1FB891846FBF731
:104F600041FA024607F110031146184600F034F8E2
:104F70000346BB60074B1B68002BE2D0054B18684B
:104F800007F108010223002200F0FAFBD9E700BF75
:104F90001C0300202003002080B485B000AF78609F
:104FA0000023FB600FE07B68FA684FF0000143F8D4
:104FB00022107B68FA6804324FF0000143F8221097
:104FC000FB680133FB60FB68032BECDD00BF00BF17
:104FD0001437BD4680BC704790B58BB000AF786089
:104FE00039603B687B6200233B6279E040493A6A62
:104FF00013469B0013449B000B441B68FB613C4918
:105000003A6A13469B0013449B000B4404331B680D
:10501000BB6137493A6A13469B0013449B000B441B
:1050200008331B687B6132493A6A13469B0013447C
:105030009B000B440C331B683B612D493A6A1346B5
:105040009B0013449B000B4410331B68FB60796A80
:10505000F869FBF75DF8034618467B683A6A53F82F
:1050600022301946FBF70EF90346BB60796AB8692E
:10507000FBF74EF803461C46B9683869FBF748F859
:10508000034619462046FBF7FBF8034618467B68A3
:105090003A6A043253F822301946FBF7F3F8034614
:1050A00019467B683A6A43F82210796A7869FBF7F7
:1050B0002FF803461C46B968F868FBF729F8034641
:1050C00019462046FBF7DCF8034619467B683A6A26
:1050D000043243F82210BB687B623B6A01333B62B7
:1050E0003B6A032B82DD7B6A18462C37BD4690BD98
:1050F0002C79000880B483B000AF0346FB71FB79C4
:10510000044A012101FA03F3136100BF0C37BD46C5
:1051100080BC70470008014080B483B000AF0346F4
:10512000FB71FB79044A012101FA03F3536100BFCB
:105130000C37BD4680BC70470008014080B500AF09
:10514000124B9B69114A43F004039361104B1A6898
:105150000F49104B13400B600D4B1A680C490E4B56
:1051600013430B600120FFF7D7FF0220FFF7D4FFA6
:105170000320FFF7D1FF0420FFF7CEFF0520FFF744
:10518000CBFF0620FFF7C8FF00BF80BD0010024024
:10519000000801400F0000F02022220280B582B0FA
:1051A00002AF002301930023009300234FF4807289
:1051B0000849094800F069FE002301930023009389
:1051C00000234FF480720549054800F05EFE00BFE1
:1051D000BD4680BDBC760008E5510008D4760008C5
:1051E0006552000880B584B000AF786001F040F9E6
:1051F0000346FB600320FFF77DFF07F10C0344F635
:105200002061184600F05EFF0320FFF785FF0120B4
:10521000FFF770FF07F10C031049184600F052FF2A
:105220000120FFF779FF0220FFF764FF07F10C036D
:105230004CF25031184600F045FF0220FFF76CFF9A
:105240000320FFF757FF07F10C030549184600F04C
:1052500039FF0320FFF760FF00BFCBE7100905000F
:10526000801A060080B584B000AF786001F000F9C4
:105270000346FB600620FFF73DFF07F10C031149D1
:10528000184600F01FFF0620FFF746FF0420FFF737
:1052900031FF07F10C030C49184600F013FF0420FE
:1052A000FFF73AFF0520FFF725FF07F10C034CF24B
:1052B0005031184600F006FF0520FFF72DFF00BF14
:1052C000D8E700BFA06806001009050080B483B0CD
:1052D00000AF0346FB7197F90730002B0BDBFB791E
:1052E00003F01F02064997F907305B09012000FA15
:1052F00002F241F8232000BF0C37BD4680BC704746
:1053000000E100E080B483B000AF03463960FB7178
:1053100097F90730002B0ADB3B68DAB20C4997F9A2
:1053200007301201D2B20B4483F800230AE03B6835
:10533000DAB20849FB7903F00F03043B1201D2B241
:105340000B441A7600BF0C37BD4680BC704700BFC7
:1053500000E100E000ED00E080B500AF064B1B6807
:10536000002B07D100220121802000F0ABF9034679
:10537000014A136000BF80BD2403002080B500AF48
:10538000FFF7EAFF1F4B9B691E4A43F4804343F03B
:10539000040393611C4B5B681B4A23F0F0035360CA
:1053A000194B5B68184A43F0B0035360164B5B68B7
:1053B000154A23F470635360134B5B68124A43F43D
:1053C00000635360104BDB680F4A43F48063D36083
:1053D0000E4B1B680E4A0F49A1FB03131B0C936075
:1053E0000B4BDB680A4A43F4005343F02C03D360B1
:1053F00005212520FFF786FF2520FFF767FF00BF67
:1054000080BD00BF0010024000080140C80100201C
:1054100000380140C5B3A29180B582B000AF00232F
:105420007B60244B1B6803F02003002B0ED0214B24
:105430005B68DBB2FB70204B1B68002B06D01E4B59
:1054400018683A1DF91C002300F044FA194B1B6838
:1054500003F08003002B1DD0164BDB6803F08003A4
:10546000002B17D0154B1B68002B0DD0134B1B685E
:105470003A1DB91C184600F035FB0346012B03D139
:10548000BA780C4B5A6005E00A4BDB68094A23F0F6
:105490008003D3607B68002B07D0094B4FF080520C
:1054A0001A60BFF34F8FBFF36F8F00BF0837BD4641
:1054B00080BD00BF003801402803002024030020E5
:1054C00004ED00E080B483B000AF78607B6803F146
:1054D00008027B685A607B684FF0FF329A607B68F5
:1054E00003F108027B68DA607B6803F108027B68DD
:1054F0001A617B6800221A6000BF0C37BD4680BC71
:10550000704780B483B000AF78607B6800221A6176
:1055100000BF0C37BD4680BC704780B485B000AF7B
:10552000786039603B681B68BB60BB68B3F1FF3FC4
:1055300003D17B681B69FB600CE07B680833FB6070
:1055400002E0FB685B68FB60FB685B681B68BA682D
:105550009A42F6D2FB685A683B685A603B685B68BF
:105560003A689A603B68FA689A60FB683A685A60E1
:105570003B687A681A617B681B685A1C7B681A60F2
:1055800000BF1437BD4680BC704780B485B000AF03
:1055900078607B681B69FB607B685B687A689268EF
:1055A0009A607B689B687A6852685A60FB685B689F
:1055B0007A689A4203D17B689A68FB685A607B6874
:1055C00000221A61FB681B685A1EFB681A60FB68A0
:1055D0001B6818461437BD4680BC704780B584B040
:1055E00000AF786039600123FB607B68BB60BB68FB
:1055F000002B5DD0BB68DB6B002B59D0BB681A6CED
:10560000BB68DB6B0021A3FB0223002B00D0012130
:105610000B46002B4CD101F0A7FFBB681A68BB6892
:10562000DB6BB968096C01FB03F31A44BB689A6031
:10563000BB6800229A63BB681A68BB685A60BB6883
:105640001A68BB68DB6B013BB968096C01FB03F3AB
:105650001A44BB68DA60BB68FF2283F84420BB6849
:10566000FF2283F845203B68002B14D1BB681B69DF
:10567000002B1AD0BB681033184601F0ADF8034672
:10568000002B12D00E4B4FF080521A60BFF34F8F99
:10569000BFF36F8F09E0BB6810331846FFF712FFA6
:1056A000BB6824331846FFF70DFF01F077FF01E0D8
:1056B0000023FB60FB6818461037BD4680BD00BF65
:1056C00004ED00E080B58AB002AFF860B96013461F
:1056D000FB710023FB61FB68002B2DD00021BA6811
:1056E000FB68A3FB0223002B00D001210B46002BFB
:1056F00022D1FB68BA6802FB03F313F1490F1BD8F0
:10570000FB68BA6802FB03F3BB61BB694833184608
:1057100001F0F0FCF861FB69002B0DD0FB697B61A7
:105720007B6948337B61FA79FB69009313467A6998
:10573000B968F86800F005F8FB6918462037BD46DF
:1057400080BD80B584B000AFF860B9607A60FB704E
:10575000BB68002B03D1BB69BA691A6002E0BB6960
:105760007A681A60BB69FA68DA63BB69BA681A6456
:105770000121B869FFF732FF00BF1037BD4680BD79
:1057800080B58AB000AFF860B9607A603B600023F2
:105790007B62FB683B6201F0E7FE3B6A9A6B3B6A07
:1057A000DB6B9A4202D33B68022B29D13A68B96875
:1057B000386A00F0F8F9F8613B6A5B6A002B10D098
:1057C0003B6A2433184601F007F80346002B13D038
:1057D0003F4B4FF080521A60BFF34F8FBFF36F8F74
:1057E0000AE0FB69002B07D0394B4FF080521A605A
:1057F000BFF34F8FBFF36F8F01F0D0FE012363E043
:105800007B68002B03D101F0C9FE00235CE07B6ABA
:10581000002B06D107F11403184601F0A7F8012365
:105820007B6201F0BBFE00F01DFD01F09DFE3B6AB6
:1058300093F844305BB2B3F1FF3F03D13B6A0022DF
:1058400083F844203B6A93F845305BB2B3F1FF3FE5
:1058500003D13B6A002283F8452001F09FFE3A1DE8
:1058600007F114031146184601F096F80346002B81
:1058700024D1386A00F081FA0346002B18D03B6A25
:1058800010337A681146184600F058FF386A00F065
:105890000CFA00F0F5FC0346002B7FF47CAF0C4BB8
:1058A0004FF080521A60BFF34F8FBFF36F8F72E7D4
:1058B000386A00F0FAF900F0E3FC6CE7386A00F0AF
:1058C000F4F900F0DDFC002318462837BD4680BD02
:1058D00004ED00E080B58EB000AFF860B9607A608A
:1058E0003B60FB683B63EFF311824FF0500383F39F
:1058F0001188BFF36F8FBFF34F8FFA61BB61FB69F4
:10590000FB623B6B9A6B3B6BDB6B9A4202D33B684F
:10591000022B37D13B6B93F8453087F82B303B6B2C
:105920009B6B7B623A68B968386B00F03CF997F979
:105930002B30B3F1FF3F12D13B6B5B6A002B1ED0C3
:105940003B6B2433184600F047FF0346002B16D06C
:105950007B68002B13D07B6801221A600FE000F0F7
:1059600095FD386297F92B303A6A9A4207D997F831
:105970002B300133DBB25AB23B6B83F84520012355
:105980007B6301E000237B63FB6A7B617B6983F3BC
:10599000118800BF7B6B18463837BD4680BD0000BC
:1059A00080B58AB000AFF860B9607A6000237B628E
:1059B000FB683B6201F0D8FD3B6A9B6BFB61FB69B6
:1059C000002B1FD0B968386A00F049F9FB695A1EEC
:1059D0003B6A9A633B6A1B69002B0FD03B6A10330A
:1059E000184600F0F9FE0346002B07D03C4B4FF061
:1059F00080521A60BFF34F8FBFF36F8F01F0CEFD5F
:105A0000012369E07B68002B03D101F0C7FD00236F
:105A100062E07B6A002B06D107F11403184600F000
:105A2000A5FF01237B6201F0B9FD00F01BFC01F032
:105A30009BFD3B6A93F844305BB2B3F1FF3F03D167
:105A40003B6A002283F844203B6A93F845305BB2FE
:105A5000B3F1FF3F03D13B6A002283F8452001F0F8
:105A60009DFD3A1D07F114031146184600F094FFFE
:105A70000346002B23D1386A00F069F90346002B56
:105A800017D03B6A24337A681146184600F056FE58
:105A9000386A00F00AF900F0F3FB0346002B89D1C5
:105AA0000F4B4FF080521A60BFF34F8FBFF36F8FD1
:105AB00080E7386A00F0F9F800F0E2FB7AE7386A2C
:105AC00000F0F3F800F0DCFB386A00F040F9034620
:105AD000002B3FF46FAF002318462837BD4680BD2A
